{
  "contracts/Pool.sol": {
    "Pool": {
      "abi": [
        {
          "inputs": [
            {
              "internalType": "uint256",
              "name": "addX",
              "type": "uint256"
            },
            {
              "internalType": "uint256",
              "name": "addY",
              "type": "uint256"
            }
          ],
          "name": "add_liquidity",
          "outputs": [],
          "stateMutability": "nonpayable",
          "type": "function"
        },
        {
          "inputs": [],
          "name": "pool_state",
          "outputs": [
            {
              "internalType": "uint256",
              "name": "",
              "type": "uint256"
            },
            {
              "internalType": "uint256",
              "name": "",
              "type": "uint256"
            }
          ],
          "stateMutability": "view",
          "type": "function"
        },
        {
          "inputs": [],
          "name": "supply_x",
          "outputs": [
            {
              "internalType": "uint256",
              "name": "",
              "type": "uint256"
            }
          ],
          "stateMutability": "view",
          "type": "function"
        },
        {
          "inputs": [],
          "name": "supply_y",
          "outputs": [
            {
              "internalType": "uint256",
              "name": "",
              "type": "uint256"
            }
          ],
          "stateMutability": "view",
          "type": "function"
        },
        {
          "inputs": [
            {
              "internalType": "uint256",
              "name": "deposited_y",
              "type": "uint256"
            }
          ],
          "name": "swap_x",
          "outputs": [],
          "stateMutability": "nonpayable",
          "type": "function"
        },
        {
          "inputs": [
            {
              "internalType": "uint256",
              "name": "deposited_x",
              "type": "uint256"
            }
          ],
          "name": "swap_y",
          "outputs": [],
          "stateMutability": "nonpayable",
          "type": "function"
        }
      ],
      "evm": {
        "bytecode": {
          "linkReferences": {},
          "object": "6080604052600560005560018055600560025534801561001e57600080fd5b506106c58061002e6000396000f3fe608060405234801561001057600080fd5b50600436106100615760003560e01c8062d74cf3146100665780630ad500621461008557806347ad471d146100a3578063adde7b8b146100c1578063c4adc97b146100dd578063d2c15a67146100f9575b600080fd5b61006e610115565b60405161007c92919061038b565b60405180910390f35b61008d610126565b60405161009a91906103b4565b60405180910390f35b6100ab61012c565b6040516100b891906103b4565b60405180910390f35b6100db60048036038101906100d69190610400565b610132565b005b6100f760048036038101906100f2919061042d565b610203565b005b610113600480360381019061010e9190610400565b6102a0565b005b600080600054600154915091509091565b60005481565b60015481565b60008111610175576040517f08c379a000000000000000000000000000000000000000000000000000000000815260040161016c906104ca565b60405180910390fd5b60008054826101849190610519565b9050600082600254610196919061057c565b90506001548111156101dd576040517f08c379a00000000000000000000000000000000000000000000000000000000081526004016101d4906105f9565b60405180910390fd5b6000816001546101ed9190610619565b9050806001819055508260008190555050505050565b60008211610246576040517f08c379a000000000000000000000000000000000000000000000000000000000815260040161023d906104ca565b60405180910390fd5b60008111801561026257508060025461025f919061064d565b82145b61026b57600080fd5b8160008082825461027c9190610519565b9250508190555080600160008282546102959190610519565b925050819055505050565b600081116102e3576040517f08c379a00000000000000000000000000000000000000000000000000000000081526004016102da906104ca565b60405180910390fd5b6000600154826102f39190610519565b9050600082600254610305919061057c565b905060005481111561034c576040517f08c379a0000000000000000000000000000000000000000000000000000000008152600401610343906105f9565b60405180910390fd5b60008160005461035c9190610619565b9050806000819055508260018190555050505050565b6000819050919050565b61038581610372565b82525050565b60006040820190506103a0600083018561037c565b6103ad602083018461037c565b9392505050565b60006020820190506103c9600083018461037c565b92915050565b600080fd5b6103dd81610372565b81146103e857600080fd5b50565b6000813590506103fa816103d4565b92915050565b600060208284031215610416576104156103cf565b5b6000610424848285016103eb565b91505092915050565b60008060408385031215610444576104436103cf565b5b6000610452858286016103eb565b9250506020610463858286016103eb565b9150509250929050565b600082825260208201905092915050565b7f496e76616c696420496e70757400000000000000000000000000000000000000600082015250565b60006104b4600d8361046d565b91506104bf8261047e565b602082019050919050565b600060208201905081810360008301526104e3816104a7565b9050919050565b7f4e487b7100000000000000000000000000000000000000000000000000000000600052601160045260246000fd5b600061052482610372565b915061052f83610372565b9250828201905080821115610547576105466104ea565b5b92915050565b7f4e487b7100000000000000000000000000000000000000000000000000000000600052601260045260246000fd5b600061058782610372565b915061059283610372565b9250826105a2576105a161054d565b5b828204905092915050565b7f4e6f7420656e6f756768206c6971756964697479000000000000000000000000600082015250565b60006105e360148361046d565b91506105ee826105ad565b602082019050919050565b60006020820190508181036000830152610612816105d6565b9050919050565b600061062482610372565b915061062f83610372565b9250828203905081811115610647576106466104ea565b5b92915050565b600061065882610372565b915061066383610372565b925082820261067181610372565b91508282048414831517610688576106876104ea565b5b509291505056fea264697066735822122085dd9b5f5a83c18e8527fbca0d374e7dce0cc12a7167155f269659fb95b3ae2264736f6c63430008180033",
          "opcodes": "PUSH1 0x80 PUSH1 0x40 MSTORE PUSH1 0x5 PUSH1 0x0 SSTORE PUSH1 0x1 DUP1 SSTORE PUSH1 0x5 PUSH1 0x2 SSTORE CALLVALUE DUP1 ISZERO PUSH2 0x1E JUMPI PUSH1 0x0 DUP1 REVERT JUMPDEST POP PUSH2 0x6C5 DUP1 PUSH2 0x2E PUSH1 0x0 CODECOPY PUSH1 0x0 RETURN INVALID PUSH1 0x80 PUSH1 0x40 MSTORE CALLVALUE DUP1 ISZERO PUSH2 0x10 JUMPI PUSH1 0x0 DUP1 REVERT JUMPDEST POP PUSH1 0x4 CALLDATASIZE LT PUSH2 0x61 JUMPI PUSH1 0x0 CALLDATALOAD PUSH1 0xE0 SHR DUP1 PUSH3 0xD74CF3 EQ PUSH2 0x66 JUMPI DUP1 PUSH4 0xAD50062 EQ PUSH2 0x85 JUMPI DUP1 PUSH4 0x47AD471D EQ PUSH2 0xA3 JUMPI DUP1 PUSH4 0xADDE7B8B EQ PUSH2 0xC1 JUMPI DUP1 PUSH4 0xC4ADC97B EQ PUSH2 0xDD JUMPI DUP1 PUSH4 0xD2C15A67 EQ PUSH2 0xF9 JUMPI JUMPDEST PUSH1 0x0 DUP1 REVERT JUMPDEST PUSH2 0x6E PUSH2 0x115 JUMP JUMPDEST PUSH1 0x40 MLOAD PUSH2 0x7C SWAP3 SWAP2 SWAP1 PUSH2 0x38B JUMP JUMPDEST PUSH1 0x40 MLOAD DUP1 SWAP2 SUB SWAP1 RETURN JUMPDEST PUSH2 0x8D PUSH2 0x126 JUMP JUMPDEST PUSH1 0x40 MLOAD PUSH2 0x9A SWAP2 SWAP1 PUSH2 0x3B4 JUMP JUMPDEST PUSH1 0x40 MLOAD DUP1 SWAP2 SUB SWAP1 RETURN JUMPDEST PUSH2 0xAB PUSH2 0x12C JUMP JUMPDEST PUSH1 0x40 MLOAD PUSH2 0xB8 SWAP2 SWAP1 PUSH2 0x3B4 JUMP JUMPDEST PUSH1 0x40 MLOAD DUP1 SWAP2 SUB SWAP1 RETURN JUMPDEST PUSH2 0xDB PUSH1 0x4 DUP1 CALLDATASIZE SUB DUP2 ADD SWAP1 PUSH2 0xD6 SWAP2 SWAP1 PUSH2 0x400 JUMP JUMPDEST PUSH2 0x132 JUMP JUMPDEST STOP JUMPDEST PUSH2 0xF7 PUSH1 0x4 DUP1 CALLDATASIZE SUB DUP2 ADD SWAP1 PUSH2 0xF2 SWAP2 SWAP1 PUSH2 0x42D JUMP JUMPDEST PUSH2 0x203 JUMP JUMPDEST STOP JUMPDEST PUSH2 0x113 PUSH1 0x4 DUP1 CALLDATASIZE SUB DUP2 ADD SWAP1 PUSH2 0x10E SWAP2 SWAP1 PUSH2 0x400 JUMP JUMPDEST PUSH2 0x2A0 JUMP JUMPDEST STOP JUMPDEST PUSH1 0x0 DUP1 PUSH1 0x0 SLOAD PUSH1 0x1 SLOAD SWAP2 POP SWAP2 POP SWAP1 SWAP2 JUMP JUMPDEST PUSH1 0x0 SLOAD DUP2 JUMP JUMPDEST PUSH1 0x1 SLOAD DUP2 JUMP JUMPDEST PUSH1 0x0 DUP2 GT PUSH2 0x175 JUMPI PUSH1 0x40 MLOAD PUSH32 0x8C379A000000000000000000000000000000000000000000000000000000000 DUP2 MSTORE PUSH1 0x4 ADD PUSH2 0x16C SWAP1 PUSH2 0x4CA JUMP JUMPDEST PUSH1 0x40 MLOAD DUP1 SWAP2 SUB SWAP1 REVERT JUMPDEST PUSH1 0x0 DUP1 SLOAD DUP3 PUSH2 0x184 SWAP2 SWAP1 PUSH2 0x519 JUMP JUMPDEST SWAP1 POP PUSH1 0x0 DUP3 PUSH1 0x2 SLOAD PUSH2 0x196 SWAP2 SWAP1 PUSH2 0x57C JUMP JUMPDEST SWAP1 POP PUSH1 0x1 SLOAD DUP2 GT ISZERO PUSH2 0x1DD JUMPI PUSH1 0x40 MLOAD PUSH32 0x8C379A000000000000000000000000000000000000000000000000000000000 DUP2 MSTORE PUSH1 0x4 ADD PUSH2 0x1D4 SWAP1 PUSH2 0x5F9 JUMP JUMPDEST PUSH1 0x40 MLOAD DUP1 SWAP2 SUB SWAP1 REVERT JUMPDEST PUSH1 0x0 DUP2 PUSH1 0x1 SLOAD PUSH2 0x1ED SWAP2 SWAP1 PUSH2 0x619 JUMP JUMPDEST SWAP1 POP DUP1 PUSH1 0x1 DUP2 SWAP1 SSTORE POP DUP3 PUSH1 0x0 DUP2 SWAP1 SSTORE POP POP POP POP POP JUMP JUMPDEST PUSH1 0x0 DUP3 GT PUSH2 0x246 JUMPI PUSH1 0x40 MLOAD PUSH32 0x8C379A000000000000000000000000000000000000000000000000000000000 DUP2 MSTORE PUSH1 0x4 ADD PUSH2 0x23D SWAP1 PUSH2 0x4CA JUMP JUMPDEST PUSH1 0x40 MLOAD DUP1 SWAP2 SUB SWAP1 REVERT JUMPDEST PUSH1 0x0 DUP2 GT DUP1 ISZERO PUSH2 0x262 JUMPI POP DUP1 PUSH1 0x2 SLOAD PUSH2 0x25F SWAP2 SWAP1 PUSH2 0x64D JUMP JUMPDEST DUP3 EQ JUMPDEST PUSH2 0x26B JUMPI PUSH1 0x0 DUP1 REVERT JUMPDEST DUP2 PUSH1 0x0 DUP1 DUP3 DUP3 SLOAD PUSH2 0x27C SWAP2 SWAP1 PUSH2 0x519 JUMP JUMPDEST SWAP3 POP POP DUP2 SWAP1 SSTORE POP DUP1 PUSH1 0x1 PUSH1 0x0 DUP3 DUP3 SLOAD PUSH2 0x295 SWAP2 SWAP1 PUSH2 0x519 JUMP JUMPDEST SWAP3 POP POP DUP2 SWAP1 SSTORE POP POP POP JUMP JUMPDEST PUSH1 0x0 DUP2 GT PUSH2 0x2E3 JUMPI PUSH1 0x40 MLOAD PUSH32 0x8C379A000000000000000000000000000000000000000000000000000000000 DUP2 MSTORE PUSH1 0x4 ADD PUSH2 0x2DA SWAP1 PUSH2 0x4CA JUMP JUMPDEST PUSH1 0x40 MLOAD DUP1 SWAP2 SUB SWAP1 REVERT JUMPDEST PUSH1 0x0 PUSH1 0x1 SLOAD DUP3 PUSH2 0x2F3 SWAP2 SWAP1 PUSH2 0x519 JUMP JUMPDEST SWAP1 POP PUSH1 0x0 DUP3 PUSH1 0x2 SLOAD PUSH2 0x305 SWAP2 SWAP1 PUSH2 0x57C JUMP JUMPDEST SWAP1 POP PUSH1 0x0 SLOAD DUP2 GT ISZERO PUSH2 0x34C JUMPI PUSH1 0x40 MLOAD PUSH32 0x8C379A000000000000000000000000000000000000000000000000000000000 DUP2 MSTORE PUSH1 0x4 ADD PUSH2 0x343 SWAP1 PUSH2 0x5F9 JUMP JUMPDEST PUSH1 0x40 MLOAD DUP1 SWAP2 SUB SWAP1 REVERT JUMPDEST PUSH1 0x0 DUP2 PUSH1 0x0 SLOAD PUSH2 0x35C SWAP2 SWAP1 PUSH2 0x619 JUMP JUMPDEST SWAP1 POP DUP1 PUSH1 0x0 DUP2 SWAP1 SSTORE POP DUP3 PUSH1 0x1 DUP2 SWAP1 SSTORE POP POP POP POP POP JUMP JUMPDEST PUSH1 0x0 DUP2 SWAP1 POP SWAP2 SWAP1 POP JUMP JUMPDEST PUSH2 0x385 DUP2 PUSH2 0x372 JUMP JUMPDEST DUP3 MSTORE POP POP JUMP JUMPDEST PUSH1 0x0 PUSH1 0x40 DUP3 ADD SWAP1 POP PUSH2 0x3A0 PUSH1 0x0 DUP4 ADD DUP6 PUSH2 0x37C JUMP JUMPDEST PUSH2 0x3AD PUSH1 0x20 DUP4 ADD DUP5 PUSH2 0x37C JUMP JUMPDEST SWAP4 SWAP3 POP POP POP JUMP JUMPDEST PUSH1 0x0 PUSH1 0x20 DUP3 ADD SWAP1 POP PUSH2 0x3C9 PUSH1 0x0 DUP4 ADD DUP5 PUSH2 0x37C JUMP JUMPDEST SWAP3 SWAP2 POP POP JUMP JUMPDEST PUSH1 0x0 DUP1 REVERT JUMPDEST PUSH2 0x3DD DUP2 PUSH2 0x372 JUMP JUMPDEST DUP2 EQ PUSH2 0x3E8 JUMPI PUSH1 0x0 DUP1 REVERT JUMPDEST POP JUMP JUMPDEST PUSH1 0x0 DUP2 CALLDATALOAD SWAP1 POP PUSH2 0x3FA DUP2 PUSH2 0x3D4 JUMP JUMPDEST SWAP3 SWAP2 POP POP JUMP JUMPDEST PUSH1 0x0 PUSH1 0x20 DUP3 DUP5 SUB SLT ISZERO PUSH2 0x416 JUMPI PUSH2 0x415 PUSH2 0x3CF JUMP JUMPDEST JUMPDEST PUSH1 0x0 PUSH2 0x424 DUP5 DUP3 DUP6 ADD PUSH2 0x3EB JUMP JUMPDEST SWAP2 POP POP SWAP3 SWAP2 POP POP JUMP JUMPDEST PUSH1 0x0 DUP1 PUSH1 0x40 DUP4 DUP6 SUB SLT ISZERO PUSH2 0x444 JUMPI PUSH2 0x443 PUSH2 0x3CF JUMP JUMPDEST JUMPDEST PUSH1 0x0 PUSH2 0x452 DUP6 DUP3 DUP7 ADD PUSH2 0x3EB JUMP JUMPDEST SWAP3 POP POP PUSH1 0x20 PUSH2 0x463 DUP6 DUP3 DUP7 ADD PUSH2 0x3EB JUMP JUMPDEST SWAP2 POP POP SWAP3 POP SWAP3 SWAP1 POP JUMP JUMPDEST PUSH1 0x0 DUP3 DUP3 MSTORE PUSH1 0x20 DUP3 ADD SWAP1 POP SWAP3 SWAP2 POP POP JUMP JUMPDEST PUSH32 0x496E76616C696420496E70757400000000000000000000000000000000000000 PUSH1 0x0 DUP3 ADD MSTORE POP JUMP JUMPDEST PUSH1 0x0 PUSH2 0x4B4 PUSH1 0xD DUP4 PUSH2 0x46D JUMP JUMPDEST SWAP2 POP PUSH2 0x4BF DUP3 PUSH2 0x47E JUMP JUMPDEST PUSH1 0x20 DUP3 ADD SWAP1 POP SWAP2 SWAP1 POP JUMP JUMPDEST PUSH1 0x0 PUSH1 0x20 DUP3 ADD SWAP1 POP DUP2 DUP2 SUB PUSH1 0x0 DUP4 ADD MSTORE PUSH2 0x4E3 DUP2 PUSH2 0x4A7 JUMP JUMPDEST SWAP1 POP SWAP2 SWAP1 POP JUMP JUMPDEST PUSH32 0x4E487B7100000000000000000000000000000000000000000000000000000000 PUSH1 0x0 MSTORE PUSH1 0x11 PUSH1 0x4 MSTORE PUSH1 0x24 PUSH1 0x0 REVERT JUMPDEST PUSH1 0x0 PUSH2 0x524 DUP3 PUSH2 0x372 JUMP JUMPDEST SWAP2 POP PUSH2 0x52F DUP4 PUSH2 0x372 JUMP JUMPDEST SWAP3 POP DUP3 DUP3 ADD SWAP1 POP DUP1 DUP3 GT ISZERO PUSH2 0x547 JUMPI PUSH2 0x546 PUSH2 0x4EA JUMP JUMPDEST JUMPDEST SWAP3 SWAP2 POP POP JUMP JUMPDEST PUSH32 0x4E487B7100000000000000000000000000000000000000000000000000000000 PUSH1 0x0 MSTORE PUSH1 0x12 PUSH1 0x4 MSTORE PUSH1 0x24 PUSH1 0x0 REVERT JUMPDEST PUSH1 0x0 PUSH2 0x587 DUP3 PUSH2 0x372 JUMP JUMPDEST SWAP2 POP PUSH2 0x592 DUP4 PUSH2 0x372 JUMP JUMPDEST SWAP3 POP DUP3 PUSH2 0x5A2 JUMPI PUSH2 0x5A1 PUSH2 0x54D JUMP JUMPDEST JUMPDEST DUP3 DUP3 DIV SWAP1 POP SWAP3 SWAP2 POP POP JUMP JUMPDEST PUSH32 0x4E6F7420656E6F756768206C6971756964697479000000000000000000000000 PUSH1 0x0 DUP3 ADD MSTORE POP JUMP JUMPDEST PUSH1 0x0 PUSH2 0x5E3 PUSH1 0x14 DUP4 PUSH2 0x46D JUMP JUMPDEST SWAP2 POP PUSH2 0x5EE DUP3 PUSH2 0x5AD JUMP JUMPDEST PUSH1 0x20 DUP3 ADD SWAP1 POP SWAP2 SWAP1 POP JUMP JUMPDEST PUSH1 0x0 PUSH1 0x20 DUP3 ADD SWAP1 POP DUP2 DUP2 SUB PUSH1 0x0 DUP4 ADD MSTORE PUSH2 0x612 DUP2 PUSH2 0x5D6 JUMP JUMPDEST SWAP1 POP SWAP2 SWAP1 POP JUMP JUMPDEST PUSH1 0x0 PUSH2 0x624 DUP3 PUSH2 0x372 JUMP JUMPDEST SWAP2 POP PUSH2 0x62F DUP4 PUSH2 0x372 JUMP JUMPDEST SWAP3 POP DUP3 DUP3 SUB SWAP1 POP DUP2 DUP2 GT ISZERO PUSH2 0x647 JUMPI PUSH2 0x646 PUSH2 0x4EA JUMP JUMPDEST JUMPDEST SWAP3 SWAP2 POP POP JUMP JUMPDEST PUSH1 0x0 PUSH2 0x658 DUP3 PUSH2 0x372 JUMP JUMPDEST SWAP2 POP PUSH2 0x663 DUP4 PUSH2 0x372 JUMP JUMPDEST SWAP3 POP DUP3 DUP3 MUL PUSH2 0x671 DUP2 PUSH2 0x372 JUMP JUMPDEST SWAP2 POP DUP3 DUP3 DIV DUP5 EQ DUP4 ISZERO OR PUSH2 0x688 JUMPI PUSH2 0x687 PUSH2 0x4EA JUMP JUMPDEST JUMPDEST POP SWAP3 SWAP2 POP POP JUMP INVALID LOG2 PUSH5 0x6970667358 0x22 SLT KECCAK256 DUP6 0xDD SWAP12 PUSH0 GAS DUP4 0xC1 DUP15 DUP6 0x27 0xFB 0xCA 0xD CALLDATACOPY 0x4E PUSH30 0xCE0CC12A7167155F269659FB95B3AE2264736F6C63430008180033000000 "
        },
        "methodIdentifiers": {
          "add_liquidity(uint256,uint256)": "c4adc97b",
          "pool_state()": "00d74cf3",
          "supply_x()": "0ad50062",
          "supply_y()": "47ad471d",
          "swap_x(uint256)": "d2c15a67",
          "swap_y(uint256)": "adde7b8b"
        }
      }
    }
  }
}