{
  "_format": "hh-sol-artifact-1",
  "contractName": "Pool",
  "sourceName": "contracts/Pool.sol",
  "abi": [
    {
      "inputs": [
        {
          "internalType": "uint256",
          "name": "addX",
          "type": "uint256"
        },
        {
          "internalType": "uint256",
          "name": "addY",
          "type": "uint256"
        }
      ],
      "name": "add_liquidity",
      "outputs": [],
      "stateMutability": "nonpayable",
      "type": "function"
    },
    {
      "inputs": [],
      "name": "pool_state",
      "outputs": [
        {
          "internalType": "uint256",
          "name": "",
          "type": "uint256"
        },
        {
          "internalType": "uint256",
          "name": "",
          "type": "uint256"
        }
      ],
      "stateMutability": "view",
      "type": "function"
    },
    {
      "inputs": [],
      "name": "supply_x",
      "outputs": [
        {
          "internalType": "uint256",
          "name": "",
          "type": "uint256"
        }
      ],
      "stateMutability": "view",
      "type": "function"
    },
    {
      "inputs": [],
      "name": "supply_y",
      "outputs": [
        {
          "internalType": "uint256",
          "name": "",
          "type": "uint256"
        }
      ],
      "stateMutability": "view",
      "type": "function"
    },
    {
      "inputs": [
        {
          "internalType": "uint256",
          "name": "deposited_y",
          "type": "uint256"
        }
      ],
      "name": "swap_x",
      "outputs": [],
      "stateMutability": "nonpayable",
      "type": "function"
    },
    {
      "inputs": [
        {
          "internalType": "uint256",
          "name": "deposited_x",
          "type": "uint256"
        }
      ],
      "name": "swap_y",
      "outputs": [],
      "stateMutability": "nonpayable",
      "type": "function"
    }
  ],
  "bytecode": "0x6080604052600560005560018055600560025534801561001e57600080fd5b506106c58061002e6000396000f3fe608060405234801561001057600080fd5b50600436106100615760003560e01c8062d74cf3146100665780630ad500621461008557806347ad471d146100a3578063adde7b8b146100c1578063c4adc97b146100dd578063d2c15a67146100f9575b600080fd5b61006e610115565b60405161007c92919061038b565b60405180910390f35b61008d610126565b60405161009a91906103b4565b60405180910390f35b6100ab61012c565b6040516100b891906103b4565b60405180910390f35b6100db60048036038101906100d69190610400565b610132565b005b6100f760048036038101906100f2919061042d565b610203565b005b610113600480360381019061010e9190610400565b6102a0565b005b600080600054600154915091509091565b60005481565b60015481565b60008111610175576040517f08c379a000000000000000000000000000000000000000000000000000000000815260040161016c906104ca565b60405180910390fd5b60008054826101849190610519565b9050600082600254610196919061057c565b90506001548111156101dd576040517f08c379a00000000000000000000000000000000000000000000000000000000081526004016101d4906105f9565b60405180910390fd5b6000816001546101ed9190610619565b9050806001819055508260008190555050505050565b60008211610246576040517f08c379a000000000000000000000000000000000000000000000000000000000815260040161023d906104ca565b60405180910390fd5b60008111801561026257508060025461025f919061064d565b82145b61026b57600080fd5b8160008082825461027c9190610519565b9250508190555080600160008282546102959190610519565b925050819055505050565b600081116102e3576040517f08c379a00000000000000000000000000000000000000000000000000000000081526004016102da906104ca565b60405180910390fd5b6000600154826102f39190610519565b9050600082600254610305919061057c565b905060005481111561034c576040517f08c379a0000000000000000000000000000000000000000000000000000000008152600401610343906105f9565b60405180910390fd5b60008160005461035c9190610619565b9050806000819055508260018190555050505050565b6000819050919050565b61038581610372565b82525050565b60006040820190506103a0600083018561037c565b6103ad602083018461037c565b9392505050565b60006020820190506103c9600083018461037c565b92915050565b600080fd5b6103dd81610372565b81146103e857600080fd5b50565b6000813590506103fa816103d4565b92915050565b600060208284031215610416576104156103cf565b5b6000610424848285016103eb565b91505092915050565b60008060408385031215610444576104436103cf565b5b6000610452858286016103eb565b9250506020610463858286016103eb565b9150509250929050565b600082825260208201905092915050565b7f496e76616c696420496e70757400000000000000000000000000000000000000600082015250565b60006104b4600d8361046d565b91506104bf8261047e565b602082019050919050565b600060208201905081810360008301526104e3816104a7565b9050919050565b7f4e487b7100000000000000000000000000000000000000000000000000000000600052601160045260246000fd5b600061052482610372565b915061052f83610372565b9250828201905080821115610547576105466104ea565b5b92915050565b7f4e487b7100000000000000000000000000000000000000000000000000000000600052601260045260246000fd5b600061058782610372565b915061059283610372565b9250826105a2576105a161054d565b5b828204905092915050565b7f4e6f7420656e6f756768206c6971756964697479000000000000000000000000600082015250565b60006105e360148361046d565b91506105ee826105ad565b602082019050919050565b60006020820190508181036000830152610612816105d6565b9050919050565b600061062482610372565b915061062f83610372565b9250828203905081811115610647576106466104ea565b5b92915050565b600061065882610372565b915061066383610372565b925082820261067181610372565b91508282048414831517610688576106876104ea565b5b509291505056fea264697066735822122085dd9b5f5a83c18e8527fbca0d374e7dce0cc12a7167155f269659fb95b3ae2264736f6c63430008180033",
  "linkReferences": {},
  "deployedLinkReferences": {}
}